:100000000C9438000C9400000C9400000C94000038
:100010000C9400000C9400000C9400000C94000060
:100020000C9400000C9400000C9400000C94000050
:100030000C9400000C9400000C9400000C94000040
:100040000C9400000C9400000C9400000C94000030
:100050000C94000000000000C0F9A4B0999282F84E
:1000600080900400040054000A006401580000005D
:10007000F894EE27ECBBF1E0FBBFEBBFE5BF8DE0F2
:10008000A2E0BB27ED938A95E9F780E094E0A0E633
:10009000ED930197E9F7E2E6F0E0859195910097FD
:1000A00061F0A591B59105901590BF01F001059003
:1000B0000D920197E1F7FB01F0CFEFE5EDBFE4E032
:1000C000EEBFC0E6D1E00C94650000E010E082D005
:1000D0008DD068D00436E0E01E0720F000E010E08C
:1000E000439484D0A9D0A5E0B0E00E9446010F5F00
:1000F0001F4FB29B04D0B39B2AD0EBCFFFCF1A93F4
:100100000A9310E000E0B49B21C070D04BD062D0C5
:10011000B09902C0103009F006C04394ECE34E16CB
:100120000CF0442411E0B09910E0B19902C0003005
:1001300009F007C04A94E0E04E1614F4EBE34E2EAB
:1001400001E0B19900E0B39B02D0DDCF28C01A9343
:100150000A9310E000E0B49B22C048D023D06CD0BA
:1001600039D0B09902C0003009F006C05394E8E1DC
:10017000E5150CF4552401E0B09900E0B19902C0F6
:10018000103009F007C05A94E0E05E1614F4E8E17C
:100190005E2E11E0B19910E0B29BB1DFDCCF099186
:1001A00019910895E72DA1E00E945001E2BBE72DCF
:1001B000F0E0E05AFE4FE081E5BB7394E4E07E1688
:1001C00008F07724E3E0E71521F4E5B3A0E8EA2797
:1001D000E5BB0895EFEFE4BBE1B3EF60E1BBE7B34C
:1001E000E87EE7BBE8B3EF61E8BB08950E946E01CB
:1001F00000E010E030E0ECE3E41531F444245394E3
:10020000E8E15E160CF05524E42DF0E0E7FDFFEF89
:100210008F0130E0323078F4E32FF0E0E05AFE4F07
:10022000BF01D80129D0D801EAE0F0E00E945801CE
:100230008F013F5FEFCF1CC00E946E0110E020E0F5
:1002400030E0E52DF0E0E7FDFFEF9F0112E0143014
:1002500078F4E12FF0E0E05AFE4FBF01D9010CD055
:10026000D901EAE0F0E00E9458019F011F5FEFCF43
:100270000E94730124960895EAE0F0E00E946B0169
:10028000EC59FE4FE081DB01EC930895109639F0B4
:10029000A8958AEF90E00197F1F71197C9F70895B3
:1002A000EE230E2EEA2F19F0EE0F0A94E9F70895C7
:1002B0000024112490E1AA0FBB1F001C111C0E1A70
:1002C0001F0A18F40E0E1F1E01C0A1609A9599F71F
:1002D000FD01D0010895ECDFFD0108953A932A93C2
:1002E0001A930A9308953B812A8119810881089500
:00000001FF
